{
  "contractName": "DomainRecords",
  "abi": [
    {
      "anonymous": false,
      "inputs": [
        {
          "indexed": false,
          "internalType": "string",
          "name": "nameWithTld",
          "type": "string"
        },
        {
          "indexed": true,
          "internalType": "address",
          "name": "owner",
          "type": "address"
        },
        {
          "indexed": false,
          "internalType": "uint256",
          "name": "registrationDate",
          "type": "uint256"
        },
        {
          "indexed": false,
          "internalType": "uint256",
          "name": "expirationDate",
          "type": "uint256"
        },
        {
          "indexed": false,
          "internalType": "uint256",
          "name": "registrationPrice",
          "type": "uint256"
        },
        {
          "indexed": true,
          "internalType": "address",
          "name": "factoryAddress",
          "type": "address"
        }
      ],
      "name": "DomainRecorded",
      "type": "event"
    },
    {
      "inputs": [
        {
          "internalType": "address",
          "name": "",
          "type": "address"
        },
        {
          "internalType": "uint256",
          "name": "",
          "type": "uint256"
        }
      ],
      "name": "domainsByFactory",
      "outputs": [
        {
          "internalType": "uint256",
          "name": "",
          "type": "uint256"
        }
      ],
      "stateMutability": "view",
      "type": "function"
    },
    {
      "inputs": [
        {
          "internalType": "address",
          "name": "",
          "type": "address"
        },
        {
          "internalType": "uint256",
          "name": "",
          "type": "uint256"
        }
      ],
      "name": "domainsByOwner",
      "outputs": [
        {
          "internalType": "uint256",
          "name": "",
          "type": "uint256"
        }
      ],
      "stateMutability": "view",
      "type": "function"
    },
    {
      "inputs": [],
      "name": "getAllRegisteredDomains",
      "outputs": [
        {
          "components": [
            {
              "internalType": "string",
              "name": "nameWithTld",
              "type": "string"
            },
            {
              "internalType": "address",
              "name": "owner",
              "type": "address"
            },
            {
              "internalType": "uint256",
              "name": "registrationDate",
              "type": "uint256"
            },
            {
              "internalType": "uint256",
              "name": "expirationDate",
              "type": "uint256"
            },
            {
              "internalType": "uint256",
              "name": "registrationPrice",
              "type": "uint256"
            }
          ],
          "internalType": "struct DomainRecords.RegisteredDomain[]",
          "name": "",
          "type": "tuple[]"
        }
      ],
      "stateMutability": "view",
      "type": "function"
    },
    {
      "inputs": [
        {
          "internalType": "uint256",
          "name": "index",
          "type": "uint256"
        }
      ],
      "name": "getDomainByIndex",
      "outputs": [
        {
          "components": [
            {
              "internalType": "string",
              "name": "nameWithTld",
              "type": "string"
            },
            {
              "internalType": "address",
              "name": "owner",
              "type": "address"
            },
            {
              "internalType": "uint256",
              "name": "registrationDate",
              "type": "uint256"
            },
            {
              "internalType": "uint256",
              "name": "expirationDate",
              "type": "uint256"
            },
            {
              "internalType": "uint256",
              "name": "registrationPrice",
              "type": "uint256"
            }
          ],
          "internalType": "struct DomainRecords.RegisteredDomain",
          "name": "",
          "type": "tuple"
        }
      ],
      "stateMutability": "view",
      "type": "function"
    },
    {
      "inputs": [
        {
          "internalType": "address",
          "name": "factoryAddress",
          "type": "address"
        }
      ],
      "name": "getDomainsByFactory",
      "outputs": [
        {
          "components": [
            {
              "internalType": "string",
              "name": "nameWithTld",
              "type": "string"
            },
            {
              "internalType": "address",
              "name": "owner",
              "type": "address"
            },
            {
              "internalType": "uint256",
              "name": "registrationDate",
              "type": "uint256"
            },
            {
              "internalType": "uint256",
              "name": "expirationDate",
              "type": "uint256"
            },
            {
              "internalType": "uint256",
              "name": "registrationPrice",
              "type": "uint256"
            }
          ],
          "internalType": "struct DomainRecords.RegisteredDomain[]",
          "name": "",
          "type": "tuple[]"
        }
      ],
      "stateMutability": "view",
      "type": "function"
    },
    {
      "inputs": [
        {
          "internalType": "address",
          "name": "owner",
          "type": "address"
        }
      ],
      "name": "getDomainsByOwner",
      "outputs": [
        {
          "components": [
            {
              "internalType": "string",
              "name": "nameWithTld",
              "type": "string"
            },
            {
              "internalType": "address",
              "name": "owner",
              "type": "address"
            },
            {
              "internalType": "uint256",
              "name": "registrationDate",
              "type": "uint256"
            },
            {
              "internalType": "uint256",
              "name": "expirationDate",
              "type": "uint256"
            },
            {
              "internalType": "uint256",
              "name": "registrationPrice",
              "type": "uint256"
            }
          ],
          "internalType": "struct DomainRecords.RegisteredDomain[]",
          "name": "",
          "type": "tuple[]"
        }
      ],
      "stateMutability": "view",
      "type": "function"
    },
    {
      "inputs": [
        {
          "internalType": "string",
          "name": "nameWithTld",
          "type": "string"
        },
        {
          "internalType": "address",
          "name": "owner",
          "type": "address"
        },
        {
          "internalType": "uint256",
          "name": "registrationDate",
          "type": "uint256"
        },
        {
          "internalType": "uint256",
          "name": "expirationDate",
          "type": "uint256"
        },
        {
          "internalType": "uint256",
          "name": "registrationPrice",
          "type": "uint256"
        },
        {
          "internalType": "address",
          "name": "factoryAddress",
          "type": "address"
        }
      ],
      "name": "recordDomain",
      "outputs": [],
      "stateMutability": "nonpayable",
      "type": "function"
    },
    {
      "inputs": [
        {
          "internalType": "uint256",
          "name": "",
          "type": "uint256"
        }
      ],
      "name": "registeredDomains",
      "outputs": [
        {
          "internalType": "string",
          "name": "nameWithTld",
          "type": "string"
        },
        {
          "internalType": "address",
          "name": "owner",
          "type": "address"
        },
        {
          "internalType": "uint256",
          "name": "registrationDate",
          "type": "uint256"
        },
        {
          "internalType": "uint256",
          "name": "expirationDate",
          "type": "uint256"
        },
        {
          "internalType": "uint256",
          "name": "registrationPrice",
          "type": "uint256"
        }
      ],
      "stateMutability": "view",
      "type": "function"
    }
  ],
  "bytecode": "0x608060405234801561001057600080fd5b50d3801561001d57600080fd5b50d2801561002a57600080fd5b50610fbf8061003a6000396000f3fe608060405234801561001057600080fd5b50d3801561001d57600080fd5b50d2801561002a57600080fd5b50600436106100a25760003560e01c8063cb23b64d11610075578063cb23b64d14610119578063d6446c7d1461012e578063e1f7ced814610141578063f38ffb6c1461016557600080fd5b80634828627b146100a757806350124c87146100d057806367c01430146100e55780637c08882114610106575b600080fd5b6100ba6100b5366004610ad6565b610178565b6040516100c79190610b86565b60405180910390f35b6100d86102c1565b6040516100c79190610ba0565b6100f86100f3366004610c2a565b6103e9565b6040519081526020016100c7565b6100d8610114366004610c54565b61041a565b61012c610127366004610c85565b610627565b005b6100f861013c366004610c2a565b6107a4565b61015461014f366004610ad6565b6107c0565b6040516100c7959493929190610d73565b6100d8610173366004610c54565b610899565b610180610a9e565b60005482106101cb5760405162461bcd60e51b8152602060048201526013602482015272496e646578206f7574206f6620626f756e647360681b604482015260640160405180910390fd5b600082815481106101de576101de610db3565b90600052602060002090600502016040518060a001604052908160008201805461020790610dc9565b80601f016020809104026020016040519081016040528092919081815260200182805461023390610dc9565b80156102805780601f1061025557610100808354040283529160200191610280565b820191906000526020600020905b81548152906001019060200180831161026357829003601f168201915b505050918352505060018201546001600160a01b03166020820152600282015460408201526003820154606082015260049091015460809091015292915050565b60606000805480602002602001604051908101604052809291908181526020016000905b828210156103e057838290600052602060002090600502016040518060a001604052908160008201805461031890610dc9565b80601f016020809104026020016040519081016040528092919081815260200182805461034490610dc9565b80156103915780601f1061036657610100808354040283529160200191610391565b820191906000526020600020905b81548152906001019060200180831161037457829003601f168201915b50505091835250506001828101546001600160a01b03166020808401919091526002840154604084015260038401546060840152600490930154608090920191909152918352920191016102e5565b50505050905090565b6002602052816000526040600020818154811061040557600080fd5b90600052602060002001600091509150505481565b6001600160a01b038116600090815260016020908152604080832080548251818502810185019093528083526060949383018282801561047957602002820191906000526020600020905b815481526020019060010190808311610465575b505050505090506000815167ffffffffffffffff81111561049c5761049c610c6f565b6040519080825280602002602001820160405280156104d557816020015b6104c2610a9e565b8152602001906001900390816104ba5790505b50905060005b825181101561061f5760008382815181106104f8576104f8610db3565b60200260200101518154811061051057610510610db3565b90600052602060002090600502016040518060a001604052908160008201805461053990610dc9565b80601f016020809104026020016040519081016040528092919081815260200182805461056590610dc9565b80156105b25780601f10610587576101008083540402835291602001916105b2565b820191906000526020600020905b81548152906001019060200180831161059557829003601f168201915b505050918352505060018201546001600160a01b031660208201526002820154604082015260038201546060820152600490910154608090910152825183908390811061060157610601610db3565b6020026020010181905250808061061790610e19565b9150506104db565b509392505050565b6040805160a0810182528781526001600160a01b0387166020820152908101859052606081018490526080810183905260008054600181018255908052815160059091027f290decd9548b62a8d60345a988386fc84ba6bc95484008f6362f93160ef3e5630190819061069a9082610e81565b50602082810151600183810180546001600160a01b0319166001600160a01b03938416179055604080860151600286015560608601516003860155608090950151600490940193909355841660009081529082905291822091546106fe9190610f41565b81546001818101845560009384526020808520909201929092556001600160a01b0388168352600290526040822091546107389190610f41565b815460018101835560009283526020909220909101556040516001600160a01b0380831691908716907f94fd29d492fcb7ab914bb8c40d18ab9a32cc08d1762e6137b4061dd51fdeef4f90610794908a90899089908990610f5a565b60405180910390a3505050505050565b6001602052816000526040600020818154811061040557600080fd5b600081815481106107d057600080fd5b90600052602060002090600502016000915090508060000180546107f390610dc9565b80601f016020809104026020016040519081016040528092919081815260200182805461081f90610dc9565b801561086c5780601f106108415761010080835404028352916020019161086c565b820191906000526020600020905b81548152906001019060200180831161084f57829003601f168201915b5050505060018301546002840154600385015460049095015493946001600160a01b039092169390925085565b6001600160a01b03811660009081526002602090815260408083208054825181850281018501909352808352606094938301828280156108f857602002820191906000526020600020905b8154815260200190600101908083116108e4575b505050505090506000815167ffffffffffffffff81111561091b5761091b610c6f565b60405190808252806020026020018201604052801561095457816020015b610941610a9e565b8152602001906001900390816109395790505b50905060005b825181101561061f57600083828151811061097757610977610db3565b60200260200101518154811061098f5761098f610db3565b90600052602060002090600502016040518060a00160405290816000820180546109b890610dc9565b80601f01602080910402602001604051908101604052809291908181526020018280546109e490610dc9565b8015610a315780601f10610a0657610100808354040283529160200191610a31565b820191906000526020600020905b815481529060010190602001808311610a1457829003601f168201915b505050918352505060018201546001600160a01b0316602082015260028201546040820152600382015460608201526004909101546080909101528251839083908110610a8057610a80610db3565b60200260200101819052508080610a9690610e19565b91505061095a565b6040518060a001604052806060815260200160006001600160a01b031681526020016000815260200160008152602001600081525090565b600060208284031215610ae857600080fd5b5035919050565b6000815180845260005b81811015610b1557602081850181015186830182015201610af9565b506000602082860101526020601f19601f83011685010191505092915050565b6000815160a08452610b4a60a0850182610aef565b6020848101516001600160a01b031690860152604080850151908601526060808501519086015260809384015193909401929092525090919050565b602081526000610b996020830184610b35565b9392505050565b6000602080830181845280855180835260408601915060408160051b870101925083870160005b82811015610bf557603f19888603018452610be3858351610b35565b94509285019290850190600101610bc7565b5092979650505050505050565b600081356001600160a81b0381168114610c1b57600080fd5b6001600160a01b031692915050565b60008060408385031215610c3d57600080fd5b610c4683610c02565b946020939093013593505050565b600060208284031215610c6657600080fd5b610b9982610c02565b634e487b7160e01b600052604160045260246000fd5b60008060008060008060c08789031215610c9e57600080fd5b863567ffffffffffffffff80821115610cb657600080fd5b818901915089601f830112610cca57600080fd5b813581811115610cdc57610cdc610c6f565b604051601f8201601f19908116603f01168101908382118183101715610d0457610d04610c6f565b816040528281528c6020848701011115610d1d57600080fd5b82602086016020830137600060208483010152809a505050505050610d4460208801610c02565b9450604087013593506060870135925060808701359150610d6760a08801610c02565b90509295509295509295565b60a081526000610d8660a0830188610aef565b6001600160a01b039690961660208301525060408101939093526060830191909152608090910152919050565b634e487b7160e01b600052603260045260246000fd5b600181811c90821680610ddd57607f821691505b602082108103610dfd57634e487b7160e01b600052602260045260246000fd5b50919050565b634e487b7160e01b600052601160045260246000fd5b600060018201610e2b57610e2b610e03565b5060010190565b601f821115610e7c57600081815260208120601f850160051c81016020861015610e595750805b601f850160051c820191505b81811015610e7857828155600101610e65565b5050505b505050565b815167ffffffffffffffff811115610e9b57610e9b610c6f565b610eaf81610ea98454610dc9565b84610e32565b602080601f831160018114610ee45760008415610ecc5750858301515b600019600386901b1c1916600185901b178555610e78565b600085815260208120601f198616915b82811015610f1357888601518255948401946001909101908401610ef4565b5085821015610f315787850151600019600388901b60f8161c191681555b5050505050600190811b01905550565b81810381811115610f5457610f54610e03565b92915050565b608081526000610f6d6080830187610aef565b602083019590955250604081019290925260609091015291905056fea26474726f6e58221220dfe1b023cd58d9d6ecb5e1e26d1df18cbb9d8050797661034a9c63944ac395b164736f6c63430008140033",
  "source": "// SPDX-License-Identifier: MIT\npragma solidity ^0.8.0;\n\ncontract DomainRecords {\n    // Struct to store detailed information about a registered domain\n    struct RegisteredDomain {\n        string nameWithTld;     // Full domain name with TLD\n        address owner;          // Owner's address\n        uint256 registrationDate; // Timestamp of registration\n        uint256 expirationDate;   // Expiration date\n        uint256 registrationPrice; // Price paid for registration\n    }\n\n    // Array to store all registered domains\n    RegisteredDomain[] public registeredDomains;\n\n    // Mapping from factory address to the array of registered domain indices\n    mapping(address => uint256[]) public domainsByFactory;\n\n    // Mapping from owner address to the array of registered domain indices\n    mapping(address => uint256[]) public domainsByOwner;\n\n    // Event for when a domain is added to the records\n    event DomainRecorded(\n        string nameWithTld,\n        address indexed owner,\n        uint256 registrationDate,\n        uint256 expirationDate,\n        uint256 registrationPrice,\n        address indexed factoryAddress // Include factory address in the event\n    );\n\n    // Function to add a domain record\n    function recordDomain(\n        string memory nameWithTld,\n        address owner,\n        uint256 registrationDate,\n        uint256 expirationDate,\n        uint256 registrationPrice,\n        address factoryAddress // Accept factory address\n    ) external {\n        registeredDomains.push(RegisteredDomain({\n            nameWithTld: nameWithTld,\n            owner: owner,\n            registrationDate: registrationDate,\n            expirationDate: expirationDate,\n            registrationPrice: registrationPrice\n        }));\n\n        // Link the registered domain index to the factory address\n        domainsByFactory[factoryAddress].push(registeredDomains.length - 1);\n\n        // Link the registered domain index to the owner's address\n        domainsByOwner[owner].push(registeredDomains.length - 1);\n\n        emit DomainRecorded(nameWithTld, owner, registrationDate, expirationDate, registrationPrice, factoryAddress);\n    }\n\n    // Function to get all registered domains\n    function getAllRegisteredDomains() external view returns (RegisteredDomain[] memory) {\n        return registeredDomains;\n    }\n\n    // Function to get a specific domain by index\n    function getDomainByIndex(uint256 index) external view returns (RegisteredDomain memory) {\n        require(index < registeredDomains.length, \"Index out of bounds\");\n        return registeredDomains[index];\n    }\n\n    // Function to get all registered domains for a specific factory address\n    function getDomainsByFactory(address factoryAddress) external view returns (RegisteredDomain[] memory) {\n        uint256[] memory indices = domainsByFactory[factoryAddress];\n        RegisteredDomain[] memory domainsForFactory = new RegisteredDomain[](indices.length);\n\n        for (uint256 i = 0; i < indices.length; i++) {\n            domainsForFactory[i] = registeredDomains[indices[i]];\n        }\n\n        return domainsForFactory;\n    }\n\n    // Function to get all registered domains for a specific owner address\n    function getDomainsByOwner(address owner) external view returns (RegisteredDomain[] memory) {\n        uint256[] memory indices = domainsByOwner[owner];\n        RegisteredDomain[] memory domainsForOwner = new RegisteredDomain[](indices.length);\n\n        for (uint256 i = 0; i < indices.length; i++) {\n            domainsForOwner[i] = registeredDomains[indices[i]];\n        }\n\n        return domainsForOwner;\n    }\n}\n",
  "sourcePath": "/home/lampros/Desktop/JustTlds/contracts/DomainRecords.sol",
  "compiler": {
    "name": "solc",
    "version": "0.8.20+commit.5f1834bc.Emscripten.clang"
  },
  "schemaVersion": "2.0.1",
  "updatedAt": "2024-10-04T09:31:09.563Z"
}