{
  "contractName": "PublicResolver",
  "abi": [
    {
      "anonymous": false,
      "inputs": [
        {
          "indexed": true,
          "internalType": "bytes32",
          "name": "domainHash",
          "type": "bytes32"
        },
        {
          "indexed": true,
          "internalType": "address",
          "name": "owner",
          "type": "address"
        }
      ],
      "name": "DomainLinked",
      "type": "event"
    },
    {
      "anonymous": false,
      "inputs": [
        {
          "indexed": true,
          "internalType": "address",
          "name": "owner",
          "type": "address"
        },
        {
          "indexed": true,
          "internalType": "bytes32",
          "name": "domainHash",
          "type": "bytes32"
        }
      ],
      "name": "PrimaryDomainSet",
      "type": "event"
    },
    {
      "inputs": [
        {
          "internalType": "bytes32",
          "name": "",
          "type": "bytes32"
        }
      ],
      "name": "domainToAddress",
      "outputs": [
        {
          "internalType": "address",
          "name": "",
          "type": "address"
        }
      ],
      "stateMutability": "view",
      "type": "function"
    },
    {
      "inputs": [
        {
          "internalType": "bytes32",
          "name": "domainHash",
          "type": "bytes32"
        },
        {
          "internalType": "address",
          "name": "owner",
          "type": "address"
        }
      ],
      "name": "linkDomainToAddress",
      "outputs": [],
      "stateMutability": "nonpayable",
      "type": "function"
    },
    {
      "inputs": [
        {
          "internalType": "address",
          "name": "",
          "type": "address"
        }
      ],
      "name": "primaryDomain",
      "outputs": [
        {
          "internalType": "bytes32",
          "name": "",
          "type": "bytes32"
        }
      ],
      "stateMutability": "view",
      "type": "function"
    },
    {
      "inputs": [
        {
          "internalType": "address",
          "name": "owner",
          "type": "address"
        }
      ],
      "name": "resolveAddressToDomain",
      "outputs": [
        {
          "internalType": "bytes32",
          "name": "",
          "type": "bytes32"
        }
      ],
      "stateMutability": "view",
      "type": "function"
    },
    {
      "inputs": [
        {
          "internalType": "address",
          "name": "owner",
          "type": "address"
        }
      ],
      "name": "resolveAddressToFullDomain",
      "outputs": [
        {
          "internalType": "string",
          "name": "",
          "type": "string"
        }
      ],
      "stateMutability": "view",
      "type": "function"
    },
    {
      "inputs": [
        {
          "internalType": "bytes32",
          "name": "domainHash",
          "type": "bytes32"
        }
      ],
      "name": "resolveDomainToAddress",
      "outputs": [
        {
          "internalType": "address",
          "name": "",
          "type": "address"
        }
      ],
      "stateMutability": "view",
      "type": "function"
    },
    {
      "inputs": [
        {
          "internalType": "address",
          "name": "owner",
          "type": "address"
        },
        {
          "internalType": "bytes32",
          "name": "domainHash",
          "type": "bytes32"
        }
      ],
      "name": "setPrimaryDomain",
      "outputs": [],
      "stateMutability": "nonpayable",
      "type": "function"
    }
  ],
  "bytecode": "0x608060405234801561001057600080fd5b50d3801561001d57600080fd5b50d2801561002a57600080fd5b5061056e8061003a6000396000f3fe608060405234801561001057600080fd5b50d3801561001d57600080fd5b50d2801561002a57600080fd5b50600436106100975760003560e01c80636aaa7201116100755780636aaa72011461011857806381be609714610138578063bb9f16911461014b578063c2d05fbc1461015e57600080fd5b806347d197e81461009c5780634c8fe649146100c25780634e82e2df146100d7575b600080fd5b6100af6100aa366004610413565b61017e565b6040519081526020015b60405180910390f35b6100d56100d0366004610435565b6101c3565b005b6101006100e5366004610461565b6000602081905290815260409020546001600160a01b031681565b6040516001600160a01b0390911681526020016100b9565b61012b610126366004610413565b61021c565b6040516100b9919061047a565b6100d56101463660046104c8565b610278565b610100610159366004610461565b61038e565b6100af61016c366004610413565b60016020526000908152604090205481565b6001600160a01b038116600090815260016020526040812054806101bd5760405162461bcd60e51b81526004016101b4906104f2565b60405180910390fd5b92915050565b60008281526020819052604080822080546001600160a01b0319166001600160a01b0385169081179091559051909184917f429f9bf4adb2406cc626eb42f07280f68ac5820f1b5d907d50174b3ab9c83a4d9190a35050565b6001600160a01b038116600090815260016020526040902054606090806102555760405162461bcd60e51b81526004016101b4906104f2565b604080516020810183905201604051602081830303815290604052915050919050565b6001600160a01b0382166102ce5760405162461bcd60e51b815260206004820152601d60248201527f4f776e657220616464726573732063616e6e6f74206265207a65726f2e00000060448201526064016101b4565b6000818152602081905260409020546001600160a01b038381169116146103475760405162461bcd60e51b815260206004820152602760248201527f50726f7669646564206f776e6572206973206e6f742074686520646f6d61696e6044820152661037bbb732b91760c91b60648201526084016101b4565b6001600160a01b038216600081815260016020526040808220849055518392917ffe104b536482cf4a4458213fd222cc9d99e01429ec1e0435ed6e29d8bae4dbb791a35050565b6000818152602081905260408120546001600160a01b0316806101bd5760405162461bcd60e51b8152602060048201526015602482015274111bdb585a5b88191bd95cc81b9bdd08195e1a5cdd605a1b60448201526064016101b4565b600081356001600160a81b038116811461040457600080fd5b6001600160a01b031692915050565b60006020828403121561042557600080fd5b61042e826103eb565b9392505050565b6000806040838503121561044857600080fd5b82359150610458602084016103eb565b90509250929050565b60006020828403121561047357600080fd5b5035919050565b600060208083528351808285015260005b818110156104a75785810183015185820160400152820161048b565b506000604082860101526040601f19601f8301168501019250505092915050565b600080604083850312156104db57600080fd5b6104e4836103eb565b946020939093013593505050565b60208082526026908201527f4e6f207072696d61727920646f6d61696e2073657420666f722074686973206160408201526564647265737360d01b60608201526080019056fea26474726f6e58221220cdda1e13a5d98156bad7f573cf34b48eea60ac1a61f2d90e0738ff1b7974b3ea64736f6c63430008140033",
  "source": "// SPDX-License-Identifier: MIT\npragma solidity ^0.8.0;\n\ncontract PublicResolver {\n    // Mapping from domain (hash) to the address that owns the domain\n    mapping(bytes32 => address) public domainToAddress;\n\n    // Mapping from address to primary domain hash\n    mapping(address => bytes32) public primaryDomain;\n\n    // Event emitted when a primary domain is set\n    event PrimaryDomainSet(address indexed owner, bytes32 indexed domainHash);\n\n    // Event emitted when a domain is linked to an address\n    event DomainLinked(bytes32 indexed domainHash, address indexed owner);\n\n    // Function to link a domain to an address (called from the TLD contract)\n    function linkDomainToAddress(bytes32 domainHash, address owner) external {\n        domainToAddress[domainHash] = owner;\n        emit DomainLinked(domainHash, owner);\n    }\n\n    // Function to set a primary domain for an address\n    function setPrimaryDomain(address owner, bytes32 domainHash) external {\n        require(owner != address(0), \"Owner address cannot be zero.\");\n        require(\n            domainToAddress[domainHash] == owner,\n            \"Provided owner is not the domain owner.\"\n        );\n        primaryDomain[owner] = domainHash;\n        emit PrimaryDomainSet(owner, domainHash);\n    }\n\n    // Function to resolve a domain to an address\n    function resolveDomainToAddress(\n        bytes32 domainHash\n    ) external view returns (address) {\n        address owner = domainToAddress[domainHash];\n        require(owner != address(0), \"Domain does not exist\");\n        return owner;\n    }\n\n    // Function to resolve an address to their primary domain\n    function resolveAddressToDomain(\n        address owner\n    ) external view returns (bytes32) {\n        bytes32 primaryDomainHash = primaryDomain[owner];\n        require(\n            primaryDomainHash != bytes32(0),\n            \"No primary domain set for this address\"\n        );\n        return primaryDomainHash;\n    }\n\n    // Function to resolve an address to the corresponding domain name\n    function resolveAddressToFullDomain(\n        address owner\n    ) external view returns (string memory) {\n        bytes32 primaryDomainHash = primaryDomain[owner];\n        require(\n            primaryDomainHash != bytes32(0),\n            \"No primary domain set for this address\"\n        );\n        return string(abi.encodePacked(primaryDomainHash)); // Change this according to your domain name generation logic\n    }\n}\n",
  "sourcePath": "/home/lampros/Desktop/JustTlds/contracts/PublicResolver.sol",
  "compiler": {
    "name": "solc",
    "version": "0.8.20+commit.5f1834bc.Emscripten.clang"
  },
  "schemaVersion": "2.0.1",
  "updatedAt": "2024-10-04T09:31:09.537Z"
}